{
  "contractName": "Voting",
  "abi": [
    {
      "constant": true,
      "inputs": [
        {
          "name": "",
          "type": "uint256"
        }
      ],
      "name": "candidates",
      "outputs": [
        {
          "name": "name",
          "type": "string"
        },
        {
          "name": "voteCount",
          "type": "uint256"
        }
      ],
      "payable": false,
      "stateMutability": "view",
      "type": "function"
    },
    {
      "constant": true,
      "inputs": [],
      "name": "totalVoteCount",
      "outputs": [
        {
          "name": "",
          "type": "uint256"
        }
      ],
      "payable": false,
      "stateMutability": "view",
      "type": "function"
    },
    {
      "constant": true,
      "inputs": [],
      "name": "stage",
      "outputs": [
        {
          "name": "",
          "type": "uint8"
        }
      ],
      "payable": false,
      "stateMutability": "view",
      "type": "function"
    },
    {
      "constant": true,
      "inputs": [],
      "name": "chairPerson",
      "outputs": [
        {
          "name": "",
          "type": "address"
        }
      ],
      "payable": false,
      "stateMutability": "view",
      "type": "function"
    },
    {
      "constant": true,
      "inputs": [
        {
          "name": "",
          "type": "uint256"
        }
      ],
      "name": "voters",
      "outputs": [
        {
          "name": "",
          "type": "address"
        }
      ],
      "payable": false,
      "stateMutability": "view",
      "type": "function"
    },
    {
      "inputs": [],
      "payable": false,
      "stateMutability": "nonpayable",
      "type": "constructor"
    },
    {
      "anonymous": false,
      "inputs": [
        {
          "indexed": false,
          "name": "x",
          "type": "string"
        }
      ],
      "name": "Notify",
      "type": "event"
    },
    {
      "constant": false,
      "inputs": [
        {
          "name": "_a",
          "type": "string"
        },
        {
          "name": "_b",
          "type": "string"
        },
        {
          "name": "_c",
          "type": "string"
        },
        {
          "name": "_d",
          "type": "string"
        },
        {
          "name": "_e",
          "type": "string"
        }
      ],
      "name": "strConcat",
      "outputs": [
        {
          "name": "",
          "type": "string"
        }
      ],
      "payable": false,
      "stateMutability": "nonpayable",
      "type": "function"
    },
    {
      "constant": false,
      "inputs": [
        {
          "name": "_candidate",
          "type": "string"
        }
      ],
      "name": "addCandidate",
      "outputs": [],
      "payable": false,
      "stateMutability": "nonpayable",
      "type": "function"
    },
    {
      "constant": false,
      "inputs": [],
      "name": "startVoting",
      "outputs": [],
      "payable": false,
      "stateMutability": "nonpayable",
      "type": "function"
    },
    {
      "constant": false,
      "inputs": [],
      "name": "finishVoting",
      "outputs": [],
      "payable": false,
      "stateMutability": "nonpayable",
      "type": "function"
    },
    {
      "constant": false,
      "inputs": [],
      "name": "winning",
      "outputs": [],
      "payable": false,
      "stateMutability": "nonpayable",
      "type": "function"
    },
    {
      "constant": true,
      "inputs": [],
      "name": "getCandidateLength",
      "outputs": [
        {
          "name": "lengthCandidate",
          "type": "uint256"
        }
      ],
      "payable": false,
      "stateMutability": "view",
      "type": "function"
    },
    {
      "constant": false,
      "inputs": [
        {
          "name": "_candidate",
          "type": "string"
        }
      ],
      "name": "vote",
      "outputs": [],
      "payable": false,
      "stateMutability": "nonpayable",
      "type": "function"
    }
  ],
  "bytecode": "0x608060405234801561001057600080fd5b50336000806101000a81548173ffffffffffffffffffffffffffffffffffffffff021916908373ffffffffffffffffffffffffffffffffffffffff1602179055506000600360006101000a81548160ff0219169083600281111561007057fe5b0217905550611ba3806100846000396000f3006080604052600436106100ba576000357c0100000000000000000000000000000000000000000000000000000000900463ffffffff1680631ec6b60a146100bf5780633477ee2e146100d6578063462e91ec14610183578063853a1b90146101ec578063893d8f4c14610203578063959788681461022e578063c040e6b814610428578063d4d4b5ac14610461578063da58c7d9146104b8578063f7522a8314610525578063f909430314610550578063fc36e15b14610567575b600080fd5b3480156100cb57600080fd5b506100d46105d0565b005b3480156100e257600080fd5b5061010160048036038101908080359060200190929190505050610863565b6040518080602001838152602001828103825284818151815260200191508051906020019080838360005b8381101561014757808201518184015260208101905061012c565b50505050905090810190601f1680156101745780820380516001836020036101000a031916815260200191505b50935050505060405180910390f35b34801561018f57600080fd5b506101ea600480360381019080803590602001908201803590602001908080601f016020809104026020016040519081016040528093929190818152602001838380828437820191505050505050919291929050505061092e565b005b3480156101f857600080fd5b50610201610cf2565b005b34801561020f57600080fd5b50610218610fde565b6040518082815260200191505060405180910390f35b34801561023a57600080fd5b506103ad600480360381019080803590602001908201803590602001908080601f0160208091040260200160405190810160405280939291908181526020018383808284378201915050505050509192919290803590602001908201803590602001908080601f0160208091040260200160405190810160405280939291908181526020018383808284378201915050505050509192919290803590602001908201803590602001908080601f0160208091040260200160405190810160405280939291908181526020018383808284378201915050505050509192919290803590602001908201803590602001908080601f0160208091040260200160405190810160405280939291908181526020018383808284378201915050505050509192919290803590602001908201803590602001908080601f0160208091040260200160405190810160405280939291908181526020018383808284378201915050505050509192919290505050610fe4565b6040518080602001828103825283818151815260200191508051906020019080838360005b838110156103ed5780820151818401526020810190506103d2565b50505050905090810190601f16801561041a5780820380516001836020036101000a031916815260200191505b509250505060405180910390f35b34801561043457600080fd5b5061043d6113f9565b6040518082600281111561044d57fe5b60ff16815260200191505060405180910390f35b34801561046d57600080fd5b5061047661140c565b604051808273ffffffffffffffffffffffffffffffffffffffff1673ffffffffffffffffffffffffffffffffffffffff16815260200191505060405180910390f35b3480156104c457600080fd5b506104e360048036038101908080359060200190929190505050611431565b604051808273ffffffffffffffffffffffffffffffffffffffff1673ffffffffffffffffffffffffffffffffffffffff16815260200191505060405180910390f35b34801561053157600080fd5b5061053a61146f565b6040518082815260200191505060405180910390f35b34801561055c57600080fd5b5061056561147c565b005b34801561057357600080fd5b506105ce600480360381019080803590602001908201803590602001908080601f016020809104026020016040519081016040528093929190818152602001838380828437820191505050505050919291929050505061166d565b005b6000809054906101000a900473ffffffffffffffffffffffffffffffffffffffff1673ffffffffffffffffffffffffffffffffffffffff163373ffffffffffffffffffffffffffffffffffffffff16141515610693577f740029a372cf63fe0e8d59421d39ff2e39506263bf68a6d46f4ade0771a090126040518080602001828103825260148152602001807f4f6e6c79206f776e65722063616e20646f20697400000000000000000000000081525060200191505060405180910390a1610861565b6000600360009054906101000a900460ff1660028111156106b057fe5b8160028111156106bc57fe5b141515610730577f740029a372cf63fe0e8d59421d39ff2e39506263bf68a6d46f4ade0771a090126040518080602001828103825260188152602001807f43757272656e7420737461676520697320696e76616c6964000000000000000081525060200191505060405180910390a161085f565b600260018054905010156107d1577f740029a372cf63fe0e8d59421d39ff2e39506263bf68a6d46f4ade0771a0901260405180806020018281038252602e8152602001807f566f74696e67206f6e6c792073746172742077697468206174206c656173742081526020017f74776f2063616e6469646174657300000000000000000000000000000000000081525060400191505060405180910390a161085e565b6001600360006101000a81548160ff021916908360028111156107f057fe5b02179055507f740029a372cf63fe0e8d59421d39ff2e39506263bf68a6d46f4ade0771a090126040518080602001828103825260128152602001807f53746172742074686520656c656374696f6e000000000000000000000000000081525060200191505060405180910390a15b5b505b565b60018181548110151561087257fe5b9060005260206000209060020201600091509050806000018054600181600116156101000203166002900480601f01602080910402602001604051908101604052809291908181526020018280546001816001161561010002031660029004801561091e5780601f106108f35761010080835404028352916020019161091e565b820191906000526020600020905b81548152906001019060200180831161090157829003601f168201915b5050505050908060010154905082565b60008060009054906101000a900473ffffffffffffffffffffffffffffffffffffffff1673ffffffffffffffffffffffffffffffffffffffff163373ffffffffffffffffffffffffffffffffffffffff161415156109f3577f740029a372cf63fe0e8d59421d39ff2e39506263bf68a6d46f4ade0771a090126040518080602001828103825260148152602001807f4f6e6c79206f776e65722063616e20646f20697400000000000000000000000081525060200191505060405180910390a1610cee565b6000600360009054906101000a900460ff166002811115610a1057fe5b816002811115610a1c57fe5b141515610a90577f740029a372cf63fe0e8d59421d39ff2e39506263bf68a6d46f4ade0771a090126040518080602001828103825260188152602001807f43757272656e7420737461676520697320696e76616c6964000000000000000081525060200191505060405180910390a1610cec565b600091505b600180549050821015610c1557600182815481101515610ab157fe5b90600052602060002090600202016000016040518082805460018160011615610100020316600290048015610b1d5780601f10610afb576101008083540402835291820191610b1d565b820191906000526020600020905b815481529060010190602001808311610b09575b5050915050604051809103902060001916836040518082805190602001908083835b602083101515610b645780518252602082019150602081019050602083039250610b3f565b6001836020036101000a0380198251168184511680821785525050505050509050019150506040518091039020600019161415610c08577f740029a372cf63fe0e8d59421d39ff2e39506263bf68a6d46f4ade0771a090126040518080602001828103825260198152602001807f546869732063616e64696461746520697320657869737465640000000000000081525060200191505060405180910390a1610ceb565b8180600101925050610a95565b600160408051908101604052808581526020016000815250908060018154018082558091505090600182039060005260206000209060020201600090919290919091506000820151816000019080519060200190610c74929190611ad2565b50602082015181600101555050507f740029a372cf63fe0e8d59421d39ff2e39506263bf68a6d46f4ade0771a0901260405180806020018281038252601a8152602001807f4164642063616e646964617465207375636365737366756c6c7900000000000081525060200191505060405180910390a15b5b505b5050565b6000806000606060006002600360009054906101000a900460ff166002811115610d1857fe5b816002811115610d2457fe5b141515610d98577f740029a372cf63fe0e8d59421d39ff2e39506263bf68a6d46f4ade0771a090126040518080602001828103825260188152602001807f43757272656e7420737461676520697320696e76616c6964000000000000000081525060200191505060405180910390a1610fd6565b60009550600091505b600180549050821015610e2c5785600183815481101515610dbe57fe5b9060005260206000209060020201600101541115610e1f57600182815481101515610de557fe5b9060005260206000209060020201600101549550859350600182815481101515610e0b57fe5b906000526020600020906002020160000194505b8180600101925050610da1565b610f37858054600181600116156101000203166002900480601f016020809104026020016040519081016040528092919081815260200182805460018160011615610100020316600290048015610ec45780601f10610e9957610100808354040283529160200191610ec4565b820191906000526020600020905b815481529060010190602001808311610ea757829003601f168201915b50505050506040805190810160405280600e81526020017f206973207468652077696e6e6572000000000000000000000000000000000000815250602060405190810160405280600081525060206040519081016040528060008152506020604051908101604052806000815250610fe4565b92507f740029a372cf63fe0e8d59421d39ff2e39506263bf68a6d46f4ade0771a09012836040518080602001828103825283818151815260200191508051906020019080838360005b83811015610f9b578082015181840152602081019050610f80565b50505050905090810190601f168015610fc85780820380516001836020036101000a031916815260200191505b509250505060405180910390a15b505050505050565b60045481565b6060806060806060806060806000808e98508d97508c96508b95508a94508451865188518a518c51010101016040519080825280601f01601f1916602001820160405280156110425781602001602082028038833980820191505090505b50935083925060009150600090505b885181101561110457888181518110151561106857fe5b9060200101517f010000000000000000000000000000000000000000000000000000000000000090047f01000000000000000000000000000000000000000000000000000000000000000283838060010194508151811015156110c757fe5b9060200101907effffffffffffffffffffffffffffffffffffffffffffffffffffffffffffff1916908160001a9053508080600101915050611051565b600090505b87518110156111bc57878181518110151561112057fe5b9060200101517f010000000000000000000000000000000000000000000000000000000000000090047f010000000000000000000000000000000000000000000000000000000000000002838380600101945081518110151561117f57fe5b9060200101907effffffffffffffffffffffffffffffffffffffffffffffffffffffffffffff1916908160001a9053508080600101915050611109565b600090505b86518110156112745786818151811015156111d857fe5b9060200101517f010000000000000000000000000000000000000000000000000000000000000090047f010000000000000000000000000000000000000000000000000000000000000002838380600101945081518110151561123757fe5b9060200101907effffffffffffffffffffffffffffffffffffffffffffffffffffffffffffff1916908160001a90535080806001019150506111c1565b600090505b855181101561132c57858181518110151561129057fe5b9060200101517f010000000000000000000000000000000000000000000000000000000000000090047f01000000000000000000000000000000000000000000000000000000000000000283838060010194508151811015156112ef57fe5b9060200101907effffffffffffffffffffffffffffffffffffffffffffffffffffffffffffff1916908160001a9053508080600101915050611279565b600090505b84518110156113e457848181518110151561134857fe5b9060200101517f010000000000000000000000000000000000000000000000000000000000000090047f01000000000000000000000000000000000000000000000000000000000000000283838060010194508151811015156113a757fe5b9060200101907effffffffffffffffffffffffffffffffffffffffffffffffffffffffffffff1916908160001a9053508080600101915050611331565b82995050505050505050505095945050505050565b600360009054906101000a900460ff1681565b6000809054906101000a900473ffffffffffffffffffffffffffffffffffffffff1681565b60028181548110151561144057fe5b906000526020600020016000915054906101000a900473ffffffffffffffffffffffffffffffffffffffff1681565b6000600180549050905090565b6000809054906101000a900473ffffffffffffffffffffffffffffffffffffffff1673ffffffffffffffffffffffffffffffffffffffff163373ffffffffffffffffffffffffffffffffffffffff1614151561153f577f740029a372cf63fe0e8d59421d39ff2e39506263bf68a6d46f4ade0771a090126040518080602001828103825260148152602001807f4f6e6c79206f776e65722063616e20646f20697400000000000000000000000081525060200191505060405180910390a161166b565b6001600360009054906101000a900460ff16600281111561155c57fe5b81600281111561156857fe5b1415156115dc577f740029a372cf63fe0e8d59421d39ff2e39506263bf68a6d46f4ade0771a090126040518080602001828103825260188152602001807f43757272656e7420737461676520697320696e76616c6964000000000000000081525060200191505060405180910390a1611669565b6002600360006101000a81548160ff021916908360028111156115fb57fe5b02179055507f740029a372cf63fe0e8d59421d39ff2e39506263bf68a6d46f4ade0771a090126040518080602001828103825260138152602001807f46696e6973682074686520656c656374696f6e0000000000000000000000000081525060200191505060405180910390a15b505b565b600060606001600360009054906101000a900460ff16600281111561168e57fe5b81600281111561169a57fe5b14151561170e577f740029a372cf63fe0e8d59421d39ff2e39506263bf68a6d46f4ade0771a090126040518080602001828103825260188152602001807f43757272656e7420737461676520697320696e76616c6964000000000000000081525060200191505060405180910390a1611acc565b600092505b6002805490508310156118075760028381548110151561172f57fe5b9060005260206000200160009054906101000a900473ffffffffffffffffffffffffffffffffffffffff1673ffffffffffffffffffffffffffffffffffffffff163373ffffffffffffffffffffffffffffffffffffffff1614156117fa577f740029a372cf63fe0e8d59421d39ff2e39506263bf68a6d46f4ade0771a090126040518080602001828103825260178152602001807f5468697320766f7465727320776173206578697374656400000000000000000081525060200191505060405180910390a1611acb565b8280600101935050611713565b600092505b6001805490508310156119fc5760018381548110151561182857fe5b90600052602060002090600202016000018054600181600116156101000203166002900480601f0160208091040260200160405190810160405280929190818152602001828054600181600116156101000203166002900480156118cd5780601f106118a2576101008083540402835291602001916118cd565b820191906000526020600020905b8154815290600101906020018083116118b057829003601f168201915b50505050509150816040518082805190602001908083835b60208310151561190a57805182526020820191506020810190506020830392506118e5565b6001836020036101000a038019825116818451168082178552505050505050905001915050604051809103902060001916846040518082805190602001908083835b602083101515611971578051825260208201915060208101905060208303925061194c565b6001836020036101000a03801982511681845116808217855250505050505090500191505060405180910390206000191614156119ef576001838154811015156119b757fe5b9060005260206000209060020201600101600081548092919060010191905055506004600081548092919060010191905055506119fc565b828060010193505061180c565b60023390806001815401808255809150509060018203906000526020600020016000909192909190916101000a81548173ffffffffffffffffffffffffffffffffffffffff021916908373ffffffffffffffffffffffffffffffffffffffff160217905550507f740029a372cf63fe0e8d59421d39ff2e39506263bf68a6d46f4ade0771a090126040518080602001828103825260118152602001807f566f7465207375636365737366756c6c7900000000000000000000000000000081525060200191505060405180910390a15b5b50505050565b828054600181600116156101000203166002900490600052602060002090601f016020900481019282601f10611b1357805160ff1916838001178555611b41565b82800160010185558215611b41579182015b82811115611b40578251825591602001919060010190611b25565b5b509050611b4e9190611b52565b5090565b611b7491905b80821115611b70576000816000905550600101611b58565b5090565b905600a165627a7a72305820c96dd36b9a421eef811cede0458900175933b5a01b58c6eda6099c4ca43c1d1c0029",
  "source": "pragma solidity ^0.4.24;\n\ncontract Voting {\n    struct Candidate {\n      string name;\n      uint voteCount;\n    }\n\n    enum Stage {\n      INIT,\n      START,\n      FINISH\n    }\n\n    address public chairPerson;\n    Candidate[] public candidates;\n    address[] public voters;\n    Stage public stage;\n    uint public totalVoteCount;\n\n    event Notify(string x);\n\n    constructor () public {\n      chairPerson = msg.sender;\n      stage = Stage.INIT;\n    }\n\n    modifier onlyOwner() {\n      if (msg.sender != chairPerson) {\n        emit Notify(\"Only owner can do it\");\n        return;\n      }\n      _;\n    }\n\n    modifier checkStage(Stage _stage) {\n      if (_stage != stage) {\n        emit Notify(\"Current stage is invalid\");\n        return;\n      }\n      _;\n    }\n\n    function strConcat(string _a, string _b, string _c, string _d, string _e) returns (string){\n        bytes memory _ba = bytes(_a);\n        bytes memory _bb = bytes(_b);\n        bytes memory _bc = bytes(_c);\n        bytes memory _bd = bytes(_d);\n        bytes memory _be = bytes(_e);\n        string memory abcde = new string(_ba.length + _bb.length + _bc.length + _bd.length + _be.length);\n        bytes memory babcde = bytes(abcde);\n        uint k = 0;\n        for (uint i = 0; i < _ba.length; i++) babcde[k++] = _ba[i];\n        for (i = 0; i < _bb.length; i++) babcde[k++] = _bb[i];\n        for (i = 0; i < _bc.length; i++) babcde[k++] = _bc[i];\n        for (i = 0; i < _bd.length; i++) babcde[k++] = _bd[i];\n        for (i = 0; i < _be.length; i++) babcde[k++] = _be[i];\n        return string(babcde);\n    }\n    \n    function addCandidate(string _candidate) onlyOwner() checkStage(Stage.INIT) {\n      for(uint i = 0; i < candidates.length; i++) {\n        if(keccak256(_candidate) == keccak256(candidates[i].name)) {\n          emit Notify(\"This candidate is existed\");\n          return;\n        }\n      }\n      candidates.push(Candidate(_candidate, 0));\n      emit Notify(\"Add candidate successfully\");\n    }\n\n    function startVoting() onlyOwner() checkStage(Stage.INIT) {\n      if(candidates.length < 2) {\n        emit Notify(\"Voting only start with at least two candidates\");\n        return;\n      }\n      stage = Stage.START;\n      emit Notify(\"Start the election\");\n    }\n\n    function finishVoting() onlyOwner() checkStage(Stage.START) {\n      stage = Stage.FINISH;\n      emit Notify(\"Finish the election\");\n    }\n\n    function winning() public checkStage(Stage.FINISH) {\n      uint winningCount = 0;\n      string _winner;\n      uint _voteCount;\n      string memory result;\n      \n      for (uint i = 0; i < candidates.length; i++)\n      {\n        if (candidates[i].voteCount > winningCount)\n          {\n            winningCount = candidates[i].voteCount;\n            _voteCount = winningCount;\n            _winner = candidates[i].name;\n          }\n      }\n      \n      result = strConcat(_winner, \" is the winner\", \"\", \"\", \"\");\n      emit Notify(result);\n    }\n\n    function getCandidateLength() public constant returns (uint lengthCandidate) {\n          lengthCandidate = candidates.length;\n    }\n\n    function vote(string _candidate) checkStage(Stage.START) {\n      for (uint i = 0; i < voters.length; i++) {\n        if (msg.sender == voters[i]) {\n          emit Notify(\"This voters was existed\");\n          return;\n        }\n      }\n      for(i = 0; i < candidates.length; i++) {\n        string memory tempName = candidates[i].name;\n        if(keccak256(_candidate) == keccak256(tempName)) {\n            candidates[i].voteCount++;\n            totalVoteCount++;\n            break;\n        }\n      }\n      voters.push(msg.sender);\n      emit Notify(\"Vote successfully\");\n    }\n}",
  "sourcePath": "/home/dien/Desktop/Votting-App/contracts/Voting.sol",
  "compiler": {
    "name": "solc",
    "version": "0.4.24+commit.e67f0147.Emscripten.clang"
  },
  "schemaVersion": "3.0.9",
  "updatedAt": "2019-05-16T07:30:40.058Z",
  "devdoc": {
    "methods": {}
  },
  "userdoc": {
    "methods": {}
  }
}