{
  "contractName": "Voting",
  "abi": [
    {
      "constant": true,
      "inputs": [
        {
          "name": "",
          "type": "uint256"
        }
      ],
      "name": "candidates",
      "outputs": [
        {
          "name": "Address",
          "type": "address"
        },
        {
          "name": "voteCount",
          "type": "uint256"
        }
      ],
      "payable": false,
      "stateMutability": "view",
      "type": "function"
    },
    {
      "constant": true,
      "inputs": [],
      "name": "totalVoteCount",
      "outputs": [
        {
          "name": "",
          "type": "uint256"
        }
      ],
      "payable": false,
      "stateMutability": "view",
      "type": "function"
    },
    {
      "constant": true,
      "inputs": [],
      "name": "owner",
      "outputs": [
        {
          "name": "",
          "type": "address"
        }
      ],
      "payable": false,
      "stateMutability": "view",
      "type": "function"
    },
    {
      "constant": true,
      "inputs": [],
      "name": "stage",
      "outputs": [
        {
          "name": "",
          "type": "uint8"
        }
      ],
      "payable": false,
      "stateMutability": "view",
      "type": "function"
    },
    {
      "constant": true,
      "inputs": [
        {
          "name": "",
          "type": "uint256"
        }
      ],
      "name": "voters",
      "outputs": [
        {
          "name": "",
          "type": "address"
        }
      ],
      "payable": false,
      "stateMutability": "view",
      "type": "function"
    },
    {
      "inputs": [],
      "payable": false,
      "stateMutability": "nonpayable",
      "type": "constructor"
    },
    {
      "anonymous": false,
      "inputs": [
        {
          "indexed": false,
          "name": "x",
          "type": "string"
        }
      ],
      "name": "Notify",
      "type": "event"
    },
    {
      "anonymous": false,
      "inputs": [
        {
          "indexed": false,
          "name": "winnerAddress",
          "type": "address"
        }
      ],
      "name": "winner",
      "type": "event"
    },
    {
      "constant": false,
      "inputs": [
        {
          "name": "_candidate",
          "type": "address"
        }
      ],
      "name": "addCandidate",
      "outputs": [],
      "payable": false,
      "stateMutability": "nonpayable",
      "type": "function"
    },
    {
      "constant": false,
      "inputs": [],
      "name": "startVoting",
      "outputs": [],
      "payable": false,
      "stateMutability": "nonpayable",
      "type": "function"
    },
    {
      "constant": false,
      "inputs": [],
      "name": "finishVoting",
      "outputs": [],
      "payable": false,
      "stateMutability": "nonpayable",
      "type": "function"
    },
    {
      "constant": false,
      "inputs": [],
      "name": "winning",
      "outputs": [],
      "payable": false,
      "stateMutability": "nonpayable",
      "type": "function"
    },
    {
      "constant": true,
      "inputs": [],
      "name": "getCandidateLength",
      "outputs": [
        {
          "name": "lengthCandidate",
          "type": "uint256"
        }
      ],
      "payable": false,
      "stateMutability": "view",
      "type": "function"
    },
    {
      "constant": false,
      "inputs": [
        {
          "name": "_candidate",
          "type": "address"
        }
      ],
      "name": "vote",
      "outputs": [],
      "payable": false,
      "stateMutability": "nonpayable",
      "type": "function"
    }
  ],
  "bytecode": "0x608060405234801561001057600080fd5b50336000806101000a81548173ffffffffffffffffffffffffffffffffffffffff021916908373ffffffffffffffffffffffffffffffffffffffff1602179055506000600360006101000a81548160ff0219169083600281111561007057fe5b02179055506113c7806100846000396000f3006080604052600436106100af576000357c0100000000000000000000000000000000000000000000000000000000900463ffffffff1680631ec6b60a146100b45780633477ee2e146100cb5780633acd75f81461013f5780636dd7d8ea14610182578063853a1b90146101c5578063893d8f4c146101dc5780638da5cb5b14610207578063c040e6b81461025e578063da58c7d914610297578063f7522a8314610304578063f90943031461032f575b600080fd5b3480156100c057600080fd5b506100c9610346565b005b3480156100d757600080fd5b506100f660048036038101908080359060200190929190505050610634565b604051808373ffffffffffffffffffffffffffffffffffffffff1673ffffffffffffffffffffffffffffffffffffffff1681526020018281526020019250505060405180910390f35b34801561014b57600080fd5b50610180600480360381019080803573ffffffffffffffffffffffffffffffffffffffff169060200190929190505050610687565b005b34801561018e57600080fd5b506101c3600480360381019080803573ffffffffffffffffffffffffffffffffffffffff169060200190929190505050610b38565b005b3480156101d157600080fd5b506101da610f00565b005b3480156101e857600080fd5b506101f16110c6565b6040518082815260200191505060405180910390f35b34801561021357600080fd5b5061021c6110cc565b604051808273ffffffffffffffffffffffffffffffffffffffff1673ffffffffffffffffffffffffffffffffffffffff16815260200191505060405180910390f35b34801561026a57600080fd5b506102736110f1565b6040518082600281111561028357fe5b60ff16815260200191505060405180910390f35b3480156102a357600080fd5b506102c260048036038101908080359060200190929190505050611104565b604051808273ffffffffffffffffffffffffffffffffffffffff1673ffffffffffffffffffffffffffffffffffffffff16815260200191505060405180910390f35b34801561031057600080fd5b50610319611142565b6040518082815260200191505060405180910390f35b34801561033b57600080fd5b5061034461114f565b005b6000809054906101000a900473ffffffffffffffffffffffffffffffffffffffff1673ffffffffffffffffffffffffffffffffffffffff163373ffffffffffffffffffffffffffffffffffffffff161415156103a157600080fd5b6000809054906101000a900473ffffffffffffffffffffffffffffffffffffffff1673ffffffffffffffffffffffffffffffffffffffff163373ffffffffffffffffffffffffffffffffffffffff16141515610464577f740029a372cf63fe0e8d59421d39ff2e39506263bf68a6d46f4ade0771a090126040518080602001828103825260148152602001807f4f6e6c79206f776e65722063616e20646f20697400000000000000000000000081525060200191505060405180910390a1610632565b6000600360009054906101000a900460ff16600281111561048157fe5b81600281111561048d57fe5b141515610501577f740029a372cf63fe0e8d59421d39ff2e39506263bf68a6d46f4ade0771a090126040518080602001828103825260188152602001807f43757272656e7420737461676520697320696e76616c6964000000000000000081525060200191505060405180910390a1610630565b600260018054905010156105a2577f740029a372cf63fe0e8d59421d39ff2e39506263bf68a6d46f4ade0771a0901260405180806020018281038252602e8152602001807f566f74696e67206f6e6c792073746172742077697468206174206c656173742081526020017f74776f2063616e6469646174657300000000000000000000000000000000000081525060400191505060405180910390a161062f565b6001600360006101000a81548160ff021916908360028111156105c157fe5b02179055507f740029a372cf63fe0e8d59421d39ff2e39506263bf68a6d46f4ade0771a090126040518080602001828103825260128152602001807f53746172742074686520656c656374696f6e000000000000000000000000000081525060200191505060405180910390a15b5b505b565b60018181548110151561064357fe5b90600052602060002090600202016000915090508060000160009054906101000a900473ffffffffffffffffffffffffffffffffffffffff16908060010154905082565b60008060009054906101000a900473ffffffffffffffffffffffffffffffffffffffff1673ffffffffffffffffffffffffffffffffffffffff163373ffffffffffffffffffffffffffffffffffffffff161415156106e457600080fd5b6000809054906101000a900473ffffffffffffffffffffffffffffffffffffffff1673ffffffffffffffffffffffffffffffffffffffff163373ffffffffffffffffffffffffffffffffffffffff161415156107a7577f740029a372cf63fe0e8d59421d39ff2e39506263bf68a6d46f4ade0771a090126040518080602001828103825260148152602001807f4f6e6c79206f776e65722063616e20646f20697400000000000000000000000081525060200191505060405180910390a1610b34565b6000600360009054906101000a900460ff1660028111156107c457fe5b8160028111156107d057fe5b141515610844577f740029a372cf63fe0e8d59421d39ff2e39506263bf68a6d46f4ade0771a090126040518080602001828103825260188152602001807f43757272656e7420737461676520697320696e76616c6964000000000000000081525060200191505060405180910390a1610b32565b6000809054906101000a900473ffffffffffffffffffffffffffffffffffffffff1673ffffffffffffffffffffffffffffffffffffffff163373ffffffffffffffffffffffffffffffffffffffff1614151561089f57600080fd5b600091505b600180549050821015610a1b576001828154811015156108c057fe5b906000526020600020906002020160000160009054906101000a900473ffffffffffffffffffffffffffffffffffffffff16604051808273ffffffffffffffffffffffffffffffffffffffff1673ffffffffffffffffffffffffffffffffffffffff166c0100000000000000000000000002815260140191505060405180910390206000191683604051808273ffffffffffffffffffffffffffffffffffffffff1673ffffffffffffffffffffffffffffffffffffffff166c010000000000000000000000000281526014019150506040518091039020600019161415610a0e577f740029a372cf63fe0e8d59421d39ff2e39506263bf68a6d46f4ade0771a090126040518080602001828103825260198152602001807f546869732063616e64696461746520697320657869737465640000000000000081525060200191505060405180910390a1610b31565b81806001019250506108a4565b600160408051908101604052808573ffffffffffffffffffffffffffffffffffffffff16815260200160008152509080600181540180825580915050906001820390600052602060002090600202016000909192909190915060008201518160000160006101000a81548173ffffffffffffffffffffffffffffffffffffffff021916908373ffffffffffffffffffffffffffffffffffffffff160217905550602082015181600101555050507f740029a372cf63fe0e8d59421d39ff2e39506263bf68a6d46f4ade0771a0901260405180806020018281038252601a8152602001807f4164642063616e646964617465207375636365737366756c6c7900000000000081525060200191505060405180910390a15b5b505b5050565b6000806001600360009054906101000a900460ff166002811115610b5857fe5b816002811115610b6457fe5b141515610bd8577f740029a372cf63fe0e8d59421d39ff2e39506263bf68a6d46f4ade0771a090126040518080602001828103825260188152602001807f43757272656e7420737461676520697320696e76616c6964000000000000000081525060200191505060405180910390a1610efa565b600092505b600280549050831015610cd157600283815481101515610bf957fe5b9060005260206000200160009054906101000a900473ffffffffffffffffffffffffffffffffffffffff1673ffffffffffffffffffffffffffffffffffffffff163373ffffffffffffffffffffffffffffffffffffffff161415610cc4577f740029a372cf63fe0e8d59421d39ff2e39506263bf68a6d46f4ade0771a090126040518080602001828103825260178152602001807f5468697320766f7465727320776173206578697374656400000000000000000081525060200191505060405180910390a1610ef9565b8280600101935050610bdd565b600092505b600180549050831015610e2a57600183815481101515610cf257fe5b906000526020600020906002020160000160009054906101000a900473ffffffffffffffffffffffffffffffffffffffff16915081604051808273ffffffffffffffffffffffffffffffffffffffff1673ffffffffffffffffffffffffffffffffffffffff166c0100000000000000000000000002815260140191505060405180910390206000191684604051808273ffffffffffffffffffffffffffffffffffffffff1673ffffffffffffffffffffffffffffffffffffffff166c010000000000000000000000000281526014019150506040518091039020600019161415610e1d57600183815481101515610de557fe5b906000526020600020906002020160010160008154809291906001019190505550600460008154809291906001019190505550610e2a565b8280600101935050610cd6565b60023390806001815401808255809150509060018203906000526020600020016000909192909190916101000a81548173ffffffffffffffffffffffffffffffffffffffff021916908373ffffffffffffffffffffffffffffffffffffffff160217905550507f740029a372cf63fe0e8d59421d39ff2e39506263bf68a6d46f4ade0771a090126040518080602001828103825260118152602001807f566f7465207375636365737366756c6c7900000000000000000000000000000081525060200191505060405180910390a15b5b50505050565b60008060008060006002600360009054906101000a900460ff166002811115610f2557fe5b816002811115610f3157fe5b141515610fa5577f740029a372cf63fe0e8d59421d39ff2e39506263bf68a6d46f4ade0771a090126040518080602001828103825260188152602001807f43757272656e7420737461676520697320696e76616c6964000000000000000081525060200191505060405180910390a16110be565b60009550600091505b60018054905082101561105a5785600183815481101515610fcb57fe5b906000526020600020906002020160010154111561104d57600182815481101515610ff257fe5b906000526020600020906002020160010154955085935060018281548110151561101857fe5b906000526020600020906002020160000160009054906101000a900473ffffffffffffffffffffffffffffffffffffffff1694505b8180600101925050610fae565b7f2ad95786da06c547c63d0a70ed6f06fcc5af1374aaa87963d5ba8ed02a2aa7d783604051808273ffffffffffffffffffffffffffffffffffffffff1673ffffffffffffffffffffffffffffffffffffffff16815260200191505060405180910390a15b505050505050565b60045481565b6000809054906101000a900473ffffffffffffffffffffffffffffffffffffffff1681565b600360009054906101000a900460ff1681565b60028181548110151561111357fe5b906000526020600020016000915054906101000a900473ffffffffffffffffffffffffffffffffffffffff1681565b6000600180549050905090565b6000809054906101000a900473ffffffffffffffffffffffffffffffffffffffff1673ffffffffffffffffffffffffffffffffffffffff163373ffffffffffffffffffffffffffffffffffffffff161415156111aa57600080fd5b6000809054906101000a900473ffffffffffffffffffffffffffffffffffffffff1673ffffffffffffffffffffffffffffffffffffffff163373ffffffffffffffffffffffffffffffffffffffff1614151561126d577f740029a372cf63fe0e8d59421d39ff2e39506263bf68a6d46f4ade0771a090126040518080602001828103825260148152602001807f4f6e6c79206f776e65722063616e20646f20697400000000000000000000000081525060200191505060405180910390a1611399565b6001600360009054906101000a900460ff16600281111561128a57fe5b81600281111561129657fe5b14151561130a577f740029a372cf63fe0e8d59421d39ff2e39506263bf68a6d46f4ade0771a090126040518080602001828103825260188152602001807f43757272656e7420737461676520697320696e76616c6964000000000000000081525060200191505060405180910390a1611397565b6002600360006101000a81548160ff0219169083600281111561132957fe5b02179055507f740029a372cf63fe0e8d59421d39ff2e39506263bf68a6d46f4ade0771a090126040518080602001828103825260138152602001807f46696e6973682074686520656c656374696f6e0000000000000000000000000081525060200191505060405180910390a15b505b5600a165627a7a7230582009b7d2616e6af0205539ec6a930cc9c54209f3a84f1f87b37a5662e16c98d4d70029",
  "source": "pragma solidity ^0.4.24;\n\ncontract Voting {\n    struct Candidate {\n      address Address;\n      uint voteCount;\n    }\n\n    enum Stage {\n      INIT,\n      START,\n      FINISH\n    }\n\n    address public owner;\n    Candidate[] public candidates;\n    address[] public voters;\n    Stage public stage;\n    uint public totalVoteCount;\n\n    event Notify(string x);\n    event winner(address winnerAddress);\n\n    constructor () public {\n        owner = msg.sender;\n        stage = Stage.INIT;\n    }\n\n    modifier onlyOwner() {\n        require(msg.sender == owner);\n        if (msg.sender != owner) {\n            emit Notify(\"Only owner can do it\");\n            return;\n        }\n        _;\n    }\n\n    modifier checkStage(Stage _stage) {\n      if (_stage != stage) {\n        emit Notify(\"Current stage is invalid\");\n        return;\n      }\n      _;\n    }\n\n    function addCandidate(address _candidate) onlyOwner() checkStage(Stage.INIT) {\n        require(msg.sender == owner);\n      for(uint i = 0; i < candidates.length; i++) {\n        if(keccak256(_candidate) == keccak256(candidates[i].Address)) {\n          emit Notify(\"This candidate is existed\");\n          return;\n        }\n      }\n      candidates.push(Candidate(_candidate, 0));\n      emit Notify(\"Add candidate successfully\");\n    }\n\n    function startVoting() onlyOwner() checkStage(Stage.INIT) {\n      if(candidates.length < 2) {\n        emit Notify(\"Voting only start with at least two candidates\");\n        return;\n      }\n      stage = Stage.START;\n      emit Notify(\"Start the election\");\n    }\n\n    function finishVoting() onlyOwner() checkStage(Stage.START) {\n      stage = Stage.FINISH;\n      emit Notify(\"Finish the election\");\n    }\n\n    function winning() public checkStage(Stage.FINISH) {\n      uint winningCount = 0;\n      address _winner;\n      uint _voteCount;\n      address result;\n      \n      for (uint i = 0; i < candidates.length; i++)\n      {\n        if (candidates[i].voteCount > winningCount)\n          {\n            winningCount = candidates[i].voteCount;\n            _voteCount = winningCount;\n            _winner = candidates[i].Address;\n          }\n      }\n\n      emit winner(result);\n    }\n\n    function getCandidateLength() public constant returns (uint lengthCandidate) {\n          lengthCandidate = candidates.length;\n    }\n\n    function vote(address _candidate) checkStage(Stage.START) {\n      for (uint i = 0; i < voters.length; i++) {\n        if (msg.sender == voters[i]) {\n          emit Notify(\"This voters was existed\");\n          return;\n        }\n      }\n      for(i = 0; i < candidates.length; i++) {\n        address tempName = candidates[i].Address;\n        if(keccak256(_candidate) == keccak256(tempName)) {\n            candidates[i].voteCount++;\n            totalVoteCount++;\n            break;\n        }\n      }\n      voters.push(msg.sender);\n      emit Notify(\"Vote successfully\");\n    }\n}",
  "sourcePath": "/home/dien/Desktop/Intern_Sun/Votting-App/contracts/Voting.sol",
  "compiler": {
    "name": "solc",
    "version": "0.4.24+commit.e67f0147.Emscripten.clang"
  },
  "schemaVersion": "3.0.9",
  "updatedAt": "2019-05-21T02:31:45.969Z",
  "devdoc": {
    "methods": {}
  },
  "userdoc": {
    "methods": {}
  }
}